:1000000016C300000C9460270C9435270C940A2723
:100010000C94DF260C94B4260C9489260C945E264E
:100020000C9433260C948B270C948B270C948B27E1
:100030002FC300000C944B1C2BC3000029C30000ED
:1000400027C300000C94D72923C3000021C300005C
:100050001FC300001DC300001BC300000C94E92552
:1000600017C300000C9400380C94D73711C300005C
:100070000FC300000DC300000BC3000009C3000044
:100080000C94AA2905C3000003C3000001C30000AB
:10009000FFC20000FDC20000FBC200000C941F283C
:1000A000F7C20000F5C200000C947D29F1C20000E7
:1000B000EFC20000EDC20000EBC200000C9450291A
:1000C000E7C20000E5C20000E3C200000C94AE37B6
:1000D0000C948537DDC200000C945C370C943337E8
:1000E000D7C200003007A403CE037F047F0492042C
:1000F00024077F04930A930A930A930A930A930AA4
:10010000930A1205C0042505930A930A930A4D0524
:10011000EA070C06DE06FF067905930A930A930A9E
:100120006C077A07930A930A930A930A9A07890736
:10013000930A930A930A930A930A930A930A930AD7
:10014000930A930A930A930AD307DC07930A930A44
:10015000930A930A930A930A930A930A7008FE0774
:10016000930A930A7608A030A73084308B309230FF
:100170009930AE30B5309E36A136903694369A36E8
:10018000D836A536A936AF36B336B736BD36C13602
:10019000C536D836CB36CF36D33605390A390F397E
:1001A000193923399C392D3935393D394739513978
:1001B0005B396A3974399C397E3988399239084AF1
:1001C000D73B3BCE016E84BCBFFDC12F3D6C74316B
:1001D0009ABD56833DDA3D00C77F11BED9E4BB4CC2
:1001E0003E916BAAAABE000000803F07634236B76B
:1001F0009BD8A71A39685618AEBAAB558C1D3CB7B8
:10020000CC5763BD6DEDFD753EF6177231BF000032
:1002100000803F08000000BE922449123EABAAAA0B
:100220002ABECDCCCC4C3E00000080BEABAAAAAA10
:100230003E00000000BF000000803F000000000002
:10024000084178D3BB4387D1133D190E3CC3BD424F
:1002500082AD2B3E68EC8276BED98FE1A93E4C8000
:10026000EFFFBE01C4FF7F3F000000000000200040
:10027000000000000030007C82827C00310042FEE1
:100280000200003200468A92620033004492926C6F
:100290000034001C64FE04003500F292928C00369B
:1002A000007C92924C003700C08E90E00038006CC9
:1002B00092926C0039006492927C006100042A2AB8
:1002C0001E006200FE12120C0063000C12121200DB
:1002D00064000C1212FE0065001C2A2A1800660039
:1002E000103E50500067000815151E006800FE10F3
:1002F0001E00006900002E0000006A0002012E00AE
:10030000006B00FE081412006C0000FE0200006D7D
:10031000001E100E100E6E001E10100E006F000C4E
:1003200012120C0070001F12120C0071000C12123D
:100330001F0072001E081010007300122925120001
:100340007400103E12000075001C02021E00761898
:1003500004020418007718061C0618007800120C16
:100360000C120079001805051E007A0012161A12E8
:100370000041007E88887E004200FE92926C00431D
:10038000007C828244004400FE82827C004500FEA4
:10039000929282004600FE9090800047007C8292FC
:1003A0005C004800FE1010FE00490082FE82000042
:1003B0004A000C0202FC004B00FE1028C6004C0054
:1003C000FE020202004D00FE403040FE4E00FE40A4
:1003D0003008FE4F007C8282827C5000FE9090604C
:1003E0000051007C828A847A5200FE989462005305
:1003F000006492924C00540080FE8080005500FC06
:100400000202FC005600F00C020CF05700FE04380B
:1004100004FE5800C63838C60059C0201E20C0004F
:100420005A00869AB2C2002C00010E0C00002E0069
:100430000006060000257254781E2A4E2100007A1C
:100440000000003F00204A3000002D001010101066
:10045000002B08083E0808002F00020C3040002A3C
:100460002214081422003A0000140000002200C0E8
:1004700000C000002328FE28FE28002800007C82FF
:100480000000290000827C00003B000224000000E4
:100490007E0040804080003B0002240000003D00C0
:1004A00028282828007C0000FE0000003E0082442E
:1004B0002810003C0010284482004000000000008A
:1004C000007C447C007C005C547454547C70107C30
:1004D00074545C7C545C40407C7C547C74547C0040
:1004E000040020202000000000002000230026003F
:1004F00029002C002F00320000010000030106013A
:100500000901050505050705080808080202020299
:100510000A0A08080404040401010101010101019F
:100520000303030303030303040707070C0C0C0C6A
:100530000C0C0C0C02020202060606060606060653
:100540000B0B0B0B0B0B0B0B0102102020080810E0
:100550002040102040800201020108040201010233
:10056000040810204080804020100804020180040C
:100570000201804020100804020108040201010267
:1005800004081020408001020408102040803F062B
:100590005B4F666D7D077F6F777C395E7971BF86B3
:1005A000DBCFE6EDFD87FFEFF7FCB9DEF9F10040A8
:1005B00000002100240027002A002D003000330015
:1005C00001010000040107010A01000022002500CA
:1005D00028002B002E00310034000201000005012C
:1005E00008010B0100000A0B02090C0D0E0807039D
:1005F00004010000000000000000000000000000F6
:1006000000000000000000000000000000000000EA
:1006100012111000000000000000000000000000A7
:100620000000000000000000000030511D511124A6
:100630001FBECFEFD1E2DEBFCDBF00E00CBF13E0A5
:10064000A0E0B2E0E2EFF6EB00E00BBF02C00790E3
:100650000D92A03CB107D9F72EE0A0ECB3E001C0A9
:100660001D92A43BB207E1F713E0C6E1D3E000E03E
:1006700006C021970109802FFE010E94C353C53196
:10068000D10780E00807A9F70E9404450C94685B35
:10069000B7CC2F923F924F925F926F927F928F9240
:1006A0009F92AF92BF92CF92DF92EF92FF920F9301
:1006B0001F93CF93DF93CDB7DEB76D970FB6F89446
:1006C000DEBF0FBECDBF10928A0483E090E00E948F
:1006D000B742F82E84E090E00E94B742182F85E0E0
:1006E00090E00E94B742082FF092C803123009F43C
:1006F00022C720F4113059F00C94480D143009F43D
:100700001CC7153011F40C94F30C0C94480D813077
:1007100049F0873139F0843229F00E949E428F2DB2
:100720000E94774286E090E00E94B742182F402F47
:1007300050E04134510508F0F6C6FA018827EE581A
:10074000FF4F8F4F0C94C353809142049091430408
:10075000009739F0DC0112962C91211771F00E945C
:10076000BA578EE090E00E9425577C01612F0E94CD
:10077000101AF0924304E092420480914204909156
:1007800043040E94413C6B017C010E949E42809187
:10079000C8030E947742C701B601C8C687E090E04F
:1007A0000E94B7429091C70C911304C09091C80C5D
:1007B000981751F1E12FF0E0EE0FFF1FE358FD4FC6
:1007C00090819093C50CE181E093C60C1093C70C07
:1007D0008093C80C823009F0E92F8E2F90E0FC0145
:1007E000E85BFA4FE491E093C90CFC01EE5FFA4F2D
:1007F000E491F0E0EE0FFF1FE851FB4F85919491DB
:100800009093CB0C8093CA0C0E94043C8CEC0E9409
:10081000983B84E40E94983B0E94DD256B017C019B
:1008200003E210E08091C90CE091CA0CF091CB0C6E
:100830009181282F2095922391839281982B9283E6
:10084000D8011197F1F79081892311F40C94F60CDB
:100850000E94043C8CEC0E94983B8EEB0E94983BDB
:10086000DE01119667E070E003E210E0FFECEF2E8E
:10087000F12C85E0B82EBA0E48E050E031E020E0DF
:10088000A090C90CE091CA0CF091CB0CF894918126
:100890009A299183D2809A2C9094D920D282CB012C
:1008A0000197F1F7D180992D9D21918392819A2909
:1008B0009283C8010197F1F790817894F7013197FD
:1008C000F1F78A2D892309F0232B330F4150510969
:1008D000B9F62D93BA12D0CF6A8170E0762F6627D1
:1008E0008981682B072E000C880B990B0E94E25916
:1008F00020E030E040E85DE30E94415A17C6809155
:10090000AA0C811751F0612F88EA9CE00E94B71968
:1009100060E08091A90C0E94A23888EA9CE00E94C5
:10092000C719E1C287E090E00E94B742082F80918A
:100930000B0C811729F0612F89E09CE00E94B71908
:10094000013059F489E09CE00E94D3192091C00342
:100950003091C1038A5E91400CC0023071F489E08D
:100960009CE00E94C7198A5E91402091C203309199
:10097000C303BC01620F731F8BC060E070E088C0CE
:10098000E0908C04F0908D04E114F104E1F0D701C3
:1009900091968C9191978117B1F181E792E08D93B7
:1009A0009C93F701E259FF4F808191810E94BA57D1
:1009B00081E692E0F70191838083C7010E940928B4
:1009C000C7010E94BA578CE790E00E9425577C012E
:1009D000612F0E94201A8CE492E0D70111969C931B
:1009E0008E9390968C91F701E858FF4F8083F70122
:1009F000878DE758FF4F8083F0928D04E0928C043E
:100A0000C7010E94321BE0918C04F0918D04E658DE
:100A1000FF4F6081609341048FEF860F8E3F08F097
:100A200082C561C08091AA0C811751F0612F88EABC
:100A30009CE00E94B71960E08091A90C0E94A23846
:100A400088EA9CE00E9425344DC08091AA0C811751
:100A500079F0612F88EA9CE00E94B71960E08091EC
:100A6000A80C0E94A23860E08091A90C0E94A238D4
:100A700060E088EA9CE00E94FF19182F88EA9CE059
:100A80000E942534612F70E0660F771F680F711D7B
:100A9000072E000C880B990B2AC287E090E00E9479
:100AA000B742082F8091AA0C8113B1C78091AB0C7B
:100AB0008013ADC762E0013059F48091A80C0E9408
:100AC000A23860E088EA9CE00E94FF1980270AC0F3
:100AD0008091A90C0E94A23888EA9CE00E942534EB
:100AE00061E08627682F70E080E090E00E94E05986
:100AF0001DC580910F0C811709F48BC0612F8DE00B
:100B00009CE00E94B71980910E0C90910D0C90936F
:100B1000C5038093C4030E944B3061E08DE09CE0EC
:100B20000E94DF1980E78D8FBE01635E7F4F80E0FA
:100B30000E94E93080E28C8FBE01645E7F4F81E0CD
:100B40000E94E93081E08093190C8B8FBE01655EB5
:100B50007F4F82E00E94E930CE0101967C0100E0E7
:100B600010E06C01C8010E94F55AD7018D937D01F8
:100B70000F5F1F4F0A311105A9F72D813E814F816B
:100B8000588569817A818B819C810E94CC5329850B
:100B90003A854B855C850E94CC532D853E854F85DB
:100BA00058890E94CC5329893A894B895C890E94D3
:100BB000CC532D893E894F89588D0E94CC534B01CF
:100BC0005C01898D682F70E080E090E00E94E2591E
:100BD0009B01AC01C501B4010E94CC5320E030E080
:100BE0004AE253E40E94CC530E94FF548A8D68135A
:100BF0000CC08AE1F601AAE1BCE001900D928A9551
:100C0000E1F781E08093110C02C01092110C0E9458
:100C100057310E94753A8AC487E090E00E94B7423B
:100C2000E82E8091000B811729F0612F8EEF9AE05A
:100C30000E94B719FE0131966F0185E0DF011D9218
:100C40008A95E9F760E08EEF9AE00E94DF1964E18F
:100C500070E080E090E00E94E93961E08EEF9AE078
:100C60000E94DF198BE990E00197F1F760E08EEFC9
:100C70009AE00E94DF190E94DD254B015C018EEF96
:100C80009AE00E942534811110C00E94DD25DC010C
:100C9000CB0188199909AA09BB090397A105B105D8
:100CA00070F31092020B1092030B0E94DD254B0192
:100CB0005C018EEF9AE00E942534882361F00E9447
:100CC000DD25DC01CB0188199909AA09BB09039725
:100CD000A105B10570F300E010E00E94DD254B0195
:100CE0005C018EEF9AE00E94253481110CC00E94B5
:100CF000DD25DC01CB0188199909AA09BB090397F5
:100D0000A105B10570F30E94C4394B015C010E943A
:100D1000DD252B013C018EEF9AE00E9425348823CB
:100D200061F00E94DD25DC01CB0184199509A6093B
:100D3000B7090397A105B10570F30E94C439DC011E
:100D4000CB0188199909AA09BB09F80143E0F59577
:100D5000E7954A95E1F78997A105B10538F0EC0DC3
:100D6000FD1D9081990F9160908305C0EC0DFD1DD4
:100D70008081880F80830F5F1F4F0832110509F0B3
:100D8000ACCF59814B81242F30E0250F311D8D814F
:100D900090E02817390721F45093020B4093030B7E
:100DA000E11003C01091020B02C01091030B0E94CE
:100DB0009E428F2D0E947742812FB2C38091FA0A02
:100DC0008117D1F0612F88EF9AE00E94B7198091C6
:100DD000F80A9091F90A9093FC0A8093FD0A809199
:100DE000FC0A60E00E94A2388091FD0A8093F80A14
:100DF0008091FC0A8093F90A88EF9AE020C08091E4
:100E0000F40A8117D1F0612F82EF9AE00E94B7199E
:100E10008091F20A9091F30A9093F60A8093F70A70
:100E20008091F60A60E00E94A2388091F70A8093D0
:100E3000F20A8091F60A8093F30A82EF9AE00E9408
:100E4000D3190E943E4474C387E090E00E94B742E9
:100E5000111169C39091760C983609F064C3E8C506
:100E60001A8219821C821B821E821D826091C9080F
:100E70007091CA086115710541F04091CD085091FB
:100E8000CE08CE0101960E94DB361D81E12EFE8048
:100E900084E00E947742812F0E94774200E010E0B8
:100EA0000E151F05A4F48D819E810817190748F4BB
:100EB00089819A81009729F0FC01E00FF11F808160
:100EC00001C080E00E9477420F5F1F4FE9CF898108
:100ED0009A810E94BA572CC360E0812F0E94A238E9
:100EE000812F0E944B38BC01990F880B990B0E94EF
:100EF000E2591CC3E12FF0E0EE0FFF1FE05EFD4F53
:100F0000108160E0812F0E94A238812F0E94A539B4
:100F1000EACF87E090E00E9428447C0160E0812FC6
:100F20000E94A238A701FF0C660B770B812F0E944D
:100F3000BC30C7C087E090E00E94B742082F61E054
:100F4000812F0E94A23860E0812F0E94733883E0D5
:100F500090E00197F1F761E0812F0E94733883E2FE
:100F600090E00197F1F760E0812F0E94733860E014
:100F7000802F0E94A23840E355E760E070E0802FA8
:100F80000E94BC306B017C0165E070E080E090E085
:100F90000E94E9390E949E428091C8030E947742D4
:100FA000C701B601A4CF60918F0470919004809125
:100FB000910490919204BAC28091EE0A811729F0AF
:100FC000612F8CEE9AE00E94B7198CEE9AE00E9495
:100FD0002534A6C28091D70A811729F0612F85EDAB
:100FE0009AE00E94B71910918E0487E090E00E9469
:100FF000B74291E0181390E0892F92C2111198C264
:1010000087E090E00E94B742182F88E090E00E94AD
:10101000B7421130B9F4813049F460916F0A709190
:10102000700A8091710A9091720A4BC0823009F067
:101030007FC260915F0A7091600A8091610A90910D
:10104000620A74C21230B9F4813049F46091EF0938
:101050007091F0098091F1099091F20932C08230CB
:1010600009F066C26091DF097091E0098091E109A1
:101070009091E2095BC21330B9F4813049F4609178
:101080006F0970917009809171099091720919C06E
:10109000823009F04DC260915F09709160098091C2
:1010A00061099091620942C2143009F041C2813055
:1010B00059F46091EF087091F0088091F1089091D7
:1010C000F2080E94564434C2823009F031C2609165
:1010D000DF087091E0088091E1089091E20826C253
:1010E000123709F025C2809185041AC287E090E08A
:1010F0000E94B742082F88E090E00E94B742B82EC5
:10110000E091C603F091C703309761F481E190E06C
:101110000E9425577C01612F0E94101A88E3F70175
:10112000848312C08281811799F0CF010E94BA573F
:1011300081E190E00E9425577C01612F0E94101AE6
:1011400088E3D70114968C93F092C703E092C6030C
:10115000013091F5B1100DC08091C6039091C70385
:101160000E9480408091C6039091C7030E942C404A
:10117000D3C1B1E0BB120EC08091C6039091C703EA
:101180000E9480408091C6039091C7030E942C402A
:10119000672FC5C1E2E0BE1611F060E0C0C18091CA
:1011A000C6039091C7030E9480408091C60390912E
:1011B000C7030E942C40B3C1023079F78090C60368
:1011C0009090C703C4010E948040811154C4D4018F
:1011D00019960D911C911A971B96ED90FC901C97F7
:1011E0001D96CD90DC901E97003BB4E01B0708F0E5
:1011F000E5C0E4EAEE16E6E0FE0608F0DFC0F0EB3C
:10120000CF16F4E0DF0608F0D9C0C016D10608F00A
:101210004BC0E016F10608F447C04701800E911E4E
:101220008C0C9D1C3601660C771C2DE2821621E089
:101230009206F0F0B70180E090E00E94E0591B01B7
:101240002C01B80180E090E00E94E05920E030E0FD
:1012500040EC5FE30E94415A9B01AC01C201B10125
:101260000E94A355181624F46E147F0408F405C4D4
:101270006E147F0440F46016710628F489E788161E
:10128000910408F0FEC30139114008F4F4C3A5E449
:10129000EA16A2E0FA0608F4EEC3B1E4CB16B1E018
:1012A000DB0608F013C1E7C3E016F10680F5CE14A3
:1012B000DF0468F50E0D1F1D0C0D1D1D0D3D1105E4
:1012C00008F4D9C3B70180E090E00E94E0592B01F7
:1012D0003C01B60180E090E00E94E0592AE939E93A
:1012E00049E150E40E94415A6B017C019B01AC0131
:1012F000C301B2010E94DC5987FDC5C3A701960155
:10130000C301B2010E94A35587FFBDC3B4C3CE146D
:10131000DF0420F00C151D0508F4B1C3E016F1063A
:10132000E0F1C016D106C8F1C701800F911F8C0DE6
:101330009D1D8139914008F49EC3B70180E090E083
:101340000E94E0592B013C01B80180E090E00E942E
:10135000E0592DEC3CEC4CE050E40E94415A9B01DA
:10136000AC01C301B2010E94A35518160CF087C34B
:10137000B60180E090E00E94E0592DEC3CEC4CE09E
:1013800050E40E94415A9B01AC01C301B2010E948A
:10139000A35518160CF073C370C3C601800F911FBC
:1013A000E816F90608F067C3B701600F711F6C0DEE
:1013B0007D1D6D3B724008F089C05DC3EC14FD04D7
:1013C00020F40C151D0508F45AC3E016F10640F58B
:1013D000CE14DF0428F5B70180E090E00E94E059C8
:1013E0002B013C01B60180E090E00E94E05920E032
:1013F00030E040E250E40E94415A6B017C019B01C5
:10140000AC01C301B2010E94DC5987FD3CC3A701B6
:101410009601C301B2010E94A35587FF34C356C091
:10142000D4011F96ED91FC915097C801BF010E9415
:101430009C53462F362FC701BF010E949C53262F75
:10144000C601BF010E949C53862F4B3028F02530E7
:1014500008F56530F8F417C3433030F4253030F424
:10146000633008F408C307C04630A0F42B3018F0EE
:10147000853008F402C3353068F4253018F48B3019
:1014800008F0FDC2343061F0283078F0883008F080
:10149000F6C206C0273048F0873008F0F0C205C019
:1014A0002A3018F0863008F0EAC24650433028F45B
:1014B000263048F0823050F4E4C2393020F0393020
:1014C00029F0283018F4823008F4DDC2BB2031F155
:1014D00060E0B2E0BB1204C081E06230E1F41CC005
:1014E000E4E0BE1204C081E06430A9F415C0F5E068
:1014F000BF1204C081E0653071F40EC027E0B21263
:1015000004C081E0673039F407C089E0B81207C031
:1015100081E0693009F080E0682F01C061E0862F2A
:101520000E94B34405C060E070E0CB010E94824499
:101530000E948B42ADC2C5D256C210927B0A109255
:101540007C0A10927D0A10927E0A1092FB0910927A
:10155000FC091092FD091092FE0910927B0910926D
:101560007C0910927D0910927E091092FB0810925E
:10157000FC081092FD081092FE0880E090E0A0E2C6
:10158000B1E48093630A9093640AA093650AB093D0
:10159000660A1092C10A1092BF0A21E02093550AF0
:1015A0001092560A1092730A1092740A1092750AD9
:1015B0001092760A1092D40A1092D30A8091730A7C
:1015C0009091740AA091750AB091760A40916F0AC1
:1015D0005091700A6091710A7091720A841B950B88
:1015E000A60BB70B181619061A061B061CF4209337
:1015F000C00A02C01092C00A80E090E0A0E2B1E40C
:101600008093E3099093E409A093E509B093E60978
:101610001092410A10923F0A21E02093D5091092BE
:10162000D6091092F3091092F4091092F50910925C
:10163000F6091092540A1092530A8091F30990917E
:10164000F409A091F509B091F6094091EF09509184
:10165000F0096091F1097091F209841B950BA60BBA
:10166000B70B181619061A061B061CF42093400A1D
:1016700002C01092400A80E090E0A0E2B1E48093C2
:10168000630990936409A0936509B0936609109269
:10169000C1091092BF0921E0209355091092560903
:1016A00010927309109274091092750910927609BC
:1016B0001092D4091092D309809173099091740902
:1016C000A0917509B091760940916F095091700908
:1016D0006091710970917209841B950BA60BB70B71
:1016E000181619061A061B061CF42093C00902C01E
:1016F0001092C00980E090E0A0E2B1E48093E3089A
:101700009093E408A093E508B093E608109241098D
:1017100010923F0921E02093D5081092D60810922C
:10172000F3081092F4081092F5081092F60810923F
:101730005409109253098091F3089091F408A091F4
:10174000F508B091F6084091EF085091F0086091CB
:10175000F1087091F208841B950BA60BB70B1816B5
:1017600019061A061B061CF42093400902C01092A9
:10177000400960E070E085E59AE00E94051D60E0A8
:1017800070E085ED99E00E94051D60E070E085E560
:1017900099E00E94051D60E070E085ED98E00E94F0
:1017A000051D1092550A1092D509109255091092F4
:1017B000D50881E00E94132F80E090E00E94B72EB0
:1017C00089E00E94132F80E090E00E94B72E82E013
:1017D0000E94132F80E090E00E94B72E8AE00E94C2
:1017E000132F80E090E00E94B72E83E00E94132F19
:1017F00080E090E00E94B72E8BE00E94132F80E0E3
:1018000090E00E94B72E84E00E94132F80E090E0C9
:101810000E94B72E8CE00E94132F80E090E00E947F
:10182000B72E61E088ED9CE00E94B71904EF11E04B
:101830001093DF0C0093DE0C80E090E00E943534C2
:1018400062E088ED9CE00E94B7191093DF0C0093D2
:10185000DE0C80E090E00E94353463E088ED9CE08F
:101860000E94B7191093DF0C0093DE0C80E090E02B
:101870000E94353464E088ED9CE00E94B719109313
:10188000DF0C0093DE0C80E090E00E943534109273
:10189000110B1092120B1092130B1092140B10924A
:1018A000150B1092160B1092170B1092180B10922A
:1018B0002D0B10922E0B10922F0B1092300B1092BA
:1018C000250B1092260B1092270B1092280B1092CA
:1018D000520B1092530B1092540B1092550B109206
:1018E000560B1092570B1092580B1092590B1092E6
:1018F0006E0B10926F0B1092700B1092710B109276
:10190000660B1092670B1092680B1092690B109285
:10191000930B1092940B1092950B1092960B1092C1
:10192000970B1092980B1092990B10929A0B1092A1
:10193000AF0B1092B00B1092B10B1092B20B109231
:10194000A70B1092A80B1092A90B1092AA0B109241
:10195000D40B1092D50B1092D60B1092D70B10927D
:10196000D80B1092D90B1092DA0B1092DB0B10925D
:10197000F00B1092F10B1092F20B1092F30B1092ED
:10198000E80B1092E90B1092EA0B1092EB0B40E07F
:1019900050E0BA0185E09BE00E94B02C40E050E0AE
:1019A000BA0186E49BE00E94B02C40E050E0BA010E
:1019B00087E89BE00E94B02C40E050E0BA0188EC40
:1019C0009BE00E94B02C85E09BE00E94092A86E4FF
:1019D0009BE00E94092A87E89BE00E94092A88EC84
:1019E0009BE00E94092A0E94BA4452C00E94DD2551
:1019F000DC01CB018C199D09AE09BF098E3E9240D6
:101A0000A105B10510F40C9412040C942804E12FE4
:101A1000F0E0EE0FFF1FE358FD4F80818093A80C8C
:101A200081818093A90C1093AA0C0093AB0C42C83F
:101A3000813049F480903E0C90903F0CA090400C77
:101A4000B090410C15C0823049F48090420C9090C7
:101A5000430CA090440CB090450C0AC0833041F474
:101A60008090460C9090470CA090480CB090490C88
:101A7000C501B4015BCD69E007C065E005C067E062
:101A800003C064E001C062E0BB2009F486CB21CD35
:101A90006D960FB6F894DEBF0FBECDBFDF91CF912C
:101AA0001F910F91FF90EF90DF90CF90BF90AF907C
:101AB0009F908F907F906F905F904F903F902F906E
:101AC00008952F923F924F925F926F927F928F92E2
:101AD0009F92AF92BF92CF92DF92EF92FF920F93BD
:101AE0001F93CF93DF93CDB7DEB7CB54D1090FB699
:101AF000F894DEBF0FBECDBF082F86E090E00E94B5
:101B0000B742182F013211F40C940416E0F5093095
:101B100009F47DC260F4053009F481C0083009F48D
:101B200073C1033011F00C9460190C94CB1504317F
:101B300011F40C94DC1588F40A3011F00C9460193F
:101B400087E090E00E9428447C01812F0E94132F9F
:101B5000C7010E94B72E0C9460190E3111F40C9439
:101B6000F815003211F00C94601961E00E94A2385F
:101B700087E090E00E94B742682F70E0812F0E94BA
:101B8000DE380C9460190C3309F417C298F409324A
:101B900009F44AC328F4083209F456C00C946019B9
:101BA000023311F40C94DA16043311F40C94ED168C
:101BB0000C9460190E3311F40C94361750F00F3357
:101BC00011F40C94A618013411F40C94B9180C9467
:101BD000601981110C94601987E090E00E94B7426F
:101BE000182F88E090E00E94284466277727681B1A
:101BF000790B113011F40C94F617123031F485ED95
:101C000099E00E948B230C946019133011F40C940A
:101C10000018143011F00C9460190C94071886E029
:101C200090E00E94284466277727681B790B85E59A
:101C30009AE00E948B2388E090E00E942844662767
:101C40007727681B790BDBCF87E090E00E94284460
:101C50007C0189E090E00E94E8434B015C01113077
:101C600091F561E070E0CE0101960E94C62CBE01A4
:101C70006F5F7F4F85E09BE00E943143B501A40177
:101C800085E09BE00E94B02CB701FF0C880B990BFC
:101C90000E94E2596B017C01AB01BC0185E09BE035
:101CA0000E94562C85E09BE00E945B2E85E09BE025
:101CB0000E94482EB701A60185E09BE00E946D2A94
:101CC00085E09BE033C01230A9F562E070E0CE0100
:101CD00001960E94C62CBE016F5F7F4F86E49BE099
:101CE0000E943143B501A40186E49BE00E94B02C20
:101CF000B701FF0C880B990B0E94E2596B017C0124
:101D0000AB01BC0186E49BE00E94562C86E49BE07C
:101D10000E945B2E86E49BE00E94482EB701A6013C
:101D200086E49BE00E946D2A86E49BE00E94042AE0
:101D30000C946019133091F563E070E0CE010196C8
:101D40000E94C62CBE016F5F7F4F87E89BE00E9418
:101D50003143B501A40187E89BE00E94B02CB70194
:101D6000FF0C880B990B0E94E2596B017C01AB01BF
:101D7000BC0187E89BE00E94562C87E89BE00E940C
:101D80005B2E87E89BE00E94482EB701A60187E8FA
:101D90009BE00E946D2A87E89BE0C8CF143011F0C9
:101DA0000C94601964E070E0CE0101960E94C62C8C
:101DB000BE016F5F7F4F88EC9BE00E943143B5010D
:101DC000A40188EC9BE00E94B02CB701FF0C880BAB
:101DD000990B0E94E2596B017C01AB01BC0188ECBC
:101DE0009BE00E94562C88EC9BE00E945B2E88ECC6
:101DF0009BE00E94482EB701A60188EC9BE00E9460
:101E00006D2A88EC9BE092CF87E090E00E94B74279
:101E1000C82E88E090E00E94B742082F89E090E049
:101E20000E94B742F82E8AE090E00E94B742E82E66
:101E30008BE090E00E94B742D82E8091B80C8113BD
:101E400005C08091B90C8C1509F435C01093B80CFD
:101E5000C092B90CE12FF0E0EE0FFF1FE358FD4FE9
:101E600081818093B70C80818093B60C40E060E064
:101E700080E00E941B2EE2E0CE120C94301980917B
:101E8000B70C282F30E0F901E85BFA4FE491E093BA
:101E9000C40CF901EE5FFA4FE491F0E0EE0FFF1F82
:101EA000E653FA4F259134913093C10C2093C00C26
:101EB00061E00E94A238002329F10150202F30E078
:101EC0008091BA0C9091BB0C2817390700F5802F30
:101ED000880F080F10E0E091BC0CF091BD0CE00FF2
:101EE000F11FE082E091BC0CF091BD0CE00FF11FFE
:101EF000F1828091BC0C9091BD0CFC01E00FF11FB0
:101F0000D28205C04D2D6E2D8F2D0E941B2E8091EB
:101F1000BA0C9091BB0C8C01000F111F080F191FF8
:101F2000E090BC0CF090BD0CA801B7018091BE0CF4
:101F30009091BF0C0E943A59892B11F40C946019AE
:101F4000A091C00CB091C10C8091C40C3FB7F89423
:101F50002C91982F90959223822BF7010E0F1F1F23
:101F6000E017F10781F0219148E08C9300C027FF32
:101F70009C93220F00C000C000C008F49C9300C0D6
:101F80004A9599F7EDCF3FBF4091BA0C5091BB0CE9
:101F9000CA01880F991F480F591F6091BC0C70919E
:101FA000BD0C8091BE0C9091BF0C0E9447598BECE8
:101FB00097E00197F1F70C94601987E090E00E9498
:101FC000B742082F123111F00C9460190E94CD42D3
:101FD000053060F40093850483E990E00E94A841F5
:101FE000801711F40C946019602F0BC010928504B7
:101FF00083E990E00E94A841882311F40C946019B1
:1020000060E083E990E00E94A6410C946019809101
:10201000AE0C811761F11093AE0CE12FF0E0EE0FE2
:10202000FF1FE358FD4F81818093AD0C9081909309
:10203000AC0C8093B40C9093B50C61E00E94A23874
:1020400061E08091B50C0E94A23880E48093B00CCE
:1020500080EC8093B10C8AE88093B20C80E2898393
:102060008A838B838C83CE0101960E94DE2D87E0CC
:1020700090E00E940A446B017C0119821A821B8243
:102080001C8220E030E0A9010E94DC5987FF0BC0D0
:10209000F7FAF094F7F8F09481E2898321E027962B
:1020A0002FAF279703C027961FAE2797BDEF2B2E84
:1020B00033243A9403E010E028961FAE289717FDCA
:1020C0004CC0B8016F5F7F4F072E000C880B990B37
:1020D0000E94E2599B01AC0160E070E080E291E473
:1020E0000E94AE554B015C019B01AC01C701B601DA
:1020F0000E9492540E942B552B013C01B801012EE5
:10210000000C880B990B0E94E2599B01AC0160E026
:1021100070E080E291E40E94AE552C966CAF7DAFEA
:102120008EAF9FAF2C97A5019401C301B2010E940D
:10213000415A9B01AC01C701B6010E94CB532C96BA
:102140002CAD3DAD4EAD5FAD2C970E9492540E94D8
:102150002B550E94FA54CB0123C020E030E040E22E
:1021600051E4C701B6010E94415A42E024163104ED
:1021700084F020E030E040E251E40E94415A52E015
:102180002516310431F020E030E040E251E40E94B5
:10219000415A0E94FA54CB016AE070E00E94B053A9
:1021A0001816190644F0002331F028966FAD2897D1
:1021B000662329F10FC001110DC0E1E0F0E0EC0F42
:1021C000FD1F27967FAD2797E70FF11D60E1680F90
:1021D00060830AC0E1E0F0E0EC0FFD1F2796AFAD91
:1021E0002797EA0FF11D80832796BFAD2797BF5F22
:1021F0002796BFAF2797E1E02896EFAF289727965D
:10220000FFAD2797F43050F4015011092FEF221A37
:10221000320A0C3F4FEF140709F051CFCE0101965F
:102220000E94DE2D0C9460198091790C8117B1F118
:10223000E12FF0E0EE0FFF1FE358FD4F8081809308
:102240007B0C918190937C0C1093790C61E00E943F
:10225000A23861E080917C0C0E94A23861E08091FC
:102260007B0C0E94733861E080917C0C0E94733873
:1022700080E40E94C2348CE80E94C234EFE7FCE0A4
:1022800080E18E0F11928E13FDCF81E080937D0C43
:1022900010927E0C8FE79CE00E94713487E090E002
:1022A0000E94B742813009F074C1F090D103B09020
:1022B000D2038AE090E00E94B742082F880F110BEA
:1022C000FDEF8F2EF3E09F2EC12CD12CC016D1062E
:1022D0005CF4C6010B960E94B742D4018D934D0168
:1022E000BFEFCB1ADB0AF2CFF801E350FC4F1082AC
:1022F0000F2DFF0C110B81E080937E0CE12CF12C53
:10230000F701E350FC4F8081F701E958F34F882330
:1023100021F023E1E216F10481F4F092930CE092B3
:10232000920C158E2AEFB7012603A001279F500DAE
:1023300011240417150764F005C0858F7FEFE71A95
:10234000F70ADECF0131110524F000E110E001C0F1
:102350008A011093900C00938F0C8B2D80310CF020
:102360008FE0282F87FD2FEF2093910C1016110678
:102370000CF069C040E050E0842F4017510759F03D
:102380004F5F5F4F4131510509F4CFC0FA01E95861
:10239000F34F1782F1CF403109F4C7C090E037E026
:1023A000E0E2BE2E492F50E04E155F050CF042C012
:1023B000A12CBA016C56734F6B013A9DD0011124C8
:1023C000BD0162597D4FFB011491103429F1FB01CD
:1023D0009490F6010081002E000C110BE92DF0E025
:1023E0000E171F07B9F400E010E01196FD01E00F91
:1023F000F11FE259FD4FD490E82FF0E0E958F34F78
:10240000D0868F5F803141F00F5F1F4F063011057E
:1024100069F702C0A394D1CFFB016491603429F421
:10242000FA01E958F34FB58E91509F5F803109F062
:10243000B9CF7BC0E82FF0E0E958F34F10868F5FEB
:102440008031C1F772C00417150741F4EFE7FCE0D3
:1024500080E18E0F11928E13FDCF67C0EE27FF270C
:10246000E01BF10BCF0166E070E00E94B053382F03
:10247000F093900CE0938F0CAB0190E087E070E25A
:10248000972E4E155F050CF047C0812CBA016C5693
:10249000734F6B01889DD0011124BD0162597D4F9E
:1024A000FB01B490F0E4BF1619F1FB017490F60142
:1024B000A0800A2C000CBB08E72DF0E0AE16BF068A
:1024C000A1F4FD01E30FF11D37FDFA95E159FD4F30
:1024D000D490E92FF0E0E958F34FD0869F5F903118
:1024E00030F43F5F363069F702C08394D3CF30E0D9
:1024F000FB016491603431F4FA01E958F34F958E91
:10250000415051094F5F5F4F903108F4BACF10939B
:10251000900C00938F0C09C0E92FF0E0E958F34FBD
:1025200010869F5F9031C1F7F2CF822F220F990B57
:1025300027E030E0281B390BEFE7FCE037FD14C043
:1025400090E19E0F8081022E01C0880F0A94EAF765
:1025500081939E13F7CF80917D0C81110DC3EFE71E
:10256000FCE090E19E0F0FC0079740E14E0F2081E5
:1025700030E0082E02C0359527950A94E2F72193A2
:102580004E13F5CFE8CF8081809581939E13FBCFCA
:10259000F3C2823009F09BC088E090E00E94B7420D
:1025A000E82E89E090E00E94B742F82E61E1C62E45
:1025B00064E0D62E0AE010E0C8010E94B742D601BE
:1025C0008D936D010F5F1F4F0A311105A9F7BFE011
:1025D000BE150CF475C6E7E0EF150CF471C68091DA
:1025E0007D0C6F2D0F2C000C770B4E2DEE0C550B28
:1025F00021E134E090E1920F28E030E0261B370B18
:10260000882391F18FEFE82E01C0EE0C2A95EAF7AE
:10261000DA01A158B34FE1E1F4E041515440002701
:102620001127061B170B9A012E0F3F1F37FD17C0EE
:102630002C91DE2CD2221F1454F48081282F30E0FC
:10264000062E02C0359527950A94E2F706C0208130
:10265000002E01C0220F0A94EAF72D292C9311961F
:1026600031969E13E0CF88C28FEFE82E01C0EE0CAA
:102670002A95EAF7DA01A158B34FE1E1F4E04151BC
:10268000544000271127061B170B9A012E0F3F1FDE
:1026900037FD18C02C91DE2CD2228081282F30E00B
:1026A000209530951F143CF4062E02C035952795D1
:1026B0000A94E2F705C0002E01C0220F0A94EAF73F
:1026C0002D292C93119631969E13DFCF55C283305E
:1026D00009F099C088E090E00E94B742182F89E085
:1026E00090E00E94B742082F8AE090E00E94B74233
:1026F000582F4AE0802F642F0E949053282F30E0FB
:10270000F901EE0FFF1F2E0F3F1FF901EF53FB4F93
:10271000E491E0937F0CF901EE53FB4FE491E093D9
:10272000800CF901ED53FB4F24912093810C109202
:10273000820C292F30E0F901EE0FFF1F2E0F3F1FF3
:10274000F901EF53FB4FE491E093830CF901EE5351
:10275000FB4FE491E093840CF901ED53FB4F24917E
:102760002093850C852F0E949053282F30E0F9018B
:10277000EE0FFF1F2E0F3F1FF901EF53FB4FE491A8
:10278000E093880CF901EE53FB4FE491E093890C40
:10279000F901ED53FB4F249120938A0C10928B0C7E
:1027A000292F30E0F901EE0FFF1F2E0F3F1FF90117
:1027B000EF53FB4FE491E0938C0CF901EE53FB4F88
:1027C000E491E0938D0CF901ED53FB4F249120939C
:1027D0008E0C112331F088E28093860C8093870C55
:1027E00004C01092860C1092870C80917D0C811190
:1027F000C3C1EFE7FCE090E19E0F8081809581935B
:102800009E13FBCFB9C1843009F05AC588E090E02F
:102810000E940A446B017C014B015C01B7FAB09441
:10282000B7F8B09420E030E0A9010E94DC5987FF9E
:1028300009C027968FAE279728969FAE28973A2CE7
:102840002B2C08C02796CFAE27972896DFAE289767
:102850003E2C2F2C03E0BAE08B2E912C20E03EE39F
:102860004CE156E4C701B6010E94A35587FD05C09F
:1028700089E023968FAF23970FC020E030EE49E721
:1028800054ECC701B6010E94DC5918167CF08BE0AD
:1028900023968FAF239789E024968FAF24972596B0
:1028A0008FAF259726968FAF2697EEC020E030E0B9
:1028B000A901C701B6010E94DC59A82EAA1CAA24AE
:1028C000AA1C10E060E070E080E09FE3101741F088
:1028D00020E030E040E251E40E9492541F5FF6CFC6
:1028E0009B01AC0127966FAD279728967FAD28975F
:1028F000832D922D0E94CC532B013C010E94FF544A
:10290000FB019B0110E0C901B4010E949C53A1E0AE
:10291000B0E0AC0FBD1FA10FB11D4AE0649F2019AC
:1029200011242C931F5F9B01672B69F7812F8A0D60
:10293000B82EB00E54E05B1518F404E0081B8ECFDF
:102940008CE023968FAF239724968FAF24972596FC
:102950008FAF259726968FAF2697BF0180E090E036
:102960000E94E0599B01AC01C301B2010E94CB530C
:102970002B013C0184E0F82EFB18AA2059F0E2E478
:10298000F0E0EC0FFD1FEF0DF11D8BE0808385E083
:10299000F82EFB18F10E8F2D811B112369F0E2E454
:1029A000F0E0EC0FFD1FE80FF11DDE01A10FB11DDE
:1029B0008C9180831150EFCF002309F465C063E050
:1029C000F6120EC020E030E040E251E4C301B20153
:1029D0000E94415A0E94FA54672B21F58CE062CF85
:1029E00072E0F7120EC020E030E048EC52E4C30180
:1029F000B2010E94415A0E94FA54672B99F48CE06C
:102A00004ECF81E0F8120EC020E030E04AE754E4F7
:102A1000C301B2010E94415A0E94FA54672B11F47B
:102A20008CE03ACF11E01F0DE2E4F0E0EC0FFD1F67
:102A3000EF0DF11D8AE08083015030F120E030E09D
:102A400040E251E4C301B2010E94415A4B015C01D2
:102A50000E94FA54FF24F394F10EE2E4F0E0EC0F4C
:102A6000FD1FE10FF11D6083072E000C880B990BF1
:102A70000E94E2599B01AC01C501B4010E94CB53F5
:102A80002B013C011F2DD8CF23968FAD239790E0CB
:102A9000FC01EE0FFF1F8E0F9F1FFC01EF53FB4F3A
:102AA000E491E0937F0CFC01EE53FB4FE491E09343
:102AB000800CFC01ED53FB4FE491E093810C1092EC
:102AC000820C24968FAD249790E0FC01EE0FFF1F3F
:102AD0008E0F9F1FFC01EF53FB4FE491E093830C9B
:102AE000FC01EE53FB4FE491E093840CFC01ED53A9
:102AF000FB4FE491E093850C1092860C25968FADE8
:102B0000259790E0FC01EE0FFF1F8E0F9F1FFC0129
:102B1000EF53FB4FE491E093870CFC01EE53FB4F26
:102B2000E491E093880CFC01ED53FB4FE491E093BA
:102B3000890C10928A0C26968FAD269790E0FC01A6
:102B4000EE0FFF1F8E0F9F1FFC01EF53FB4FE49111
:102B5000E0938B0CFC01EE53FB4FE491E0938C0C63
:102B6000FC01ED53FB4FE491E0938D0C10928E0C21
:102B700080917D0C882329F08FE79CE00E947134BE
:102B80009FC3EFE7FCE090E19E0F808180958193E9
:102B90009E13FBCFF1CF8091AA0C811721F0612FFA
:102BA00088EA9CE0E4D387E090E00E94B74261E0CD
:102BB000811112C060E010C08091AA0C811721F031
:102BC000612F88EA9CE0D3D387E090E00E94B7426F
:102BD000823030F4682F617088EA9CE000D470C3C2
:102BE00061E0823009F460E088EA9CE0E8D368C3E1
:102BF00061E00E94A23887E090E00E94B742682F0F
:102C0000812F0E9473385CC387E090E00E94B74236
:102C1000982E94EB981708F453C3812F90E0E1E2CB
:102C2000F4E020E030E0419151914817590789F0D4
:102C3000452B41F4F901EE0FFF1FEF5DFB4F918330
:102C4000808307C02F5F3F4F2C30310561F720E0B4
:102C500030E0F901EE0FFF1F2E0F3F1FF901EB517E
:102C6000F34F008181819281E02EF12C6701CC0C21
:102C7000DD1C96012E0D3F1DD901A85CB74F5D01EB
:102C80002C9127FD48C0003308F01AC361E0812F62
:102C90000E94A238E12FEF77D5011C911078E12B2B
:102CA000EC93802F6CE00E949053BCE08B9FB001AE
:102CB000112440E050E09A01260F371FF901EE0F72
:102CC000FF1F2E0F3F1FF901E85CF74F908197FD22
:102CD00017C04F5F5F4F4C30510569F7813009F0E5
:102CE000C3C21092800082E0809381001092850020
:102CF00010928400B19A80916F00826080936F007F
:102D0000F601EE0DFF1DE85CF74F8081806880833F
:102D100090E080E003C0003308F0D2C228E532E042
:102D20005901A91AB10897FDB394AA0CBB1CAA0CAF
:102D3000BB1C08E810E0081B110987FD1395000F64
:102D4000111F000F111F2801012E000C66087708C3
:102D5000C5010B2C000CAA0BBB0B9C01AD01241967
:102D6000350946095709A92DB0E00E94275B24EBDD
:102D700030E040E050E00E940B5BDA01C901840DB5
:102D8000951DA61DB71D801791072CF08C01A81664
:102D9000B9060CF4850102501109000F111F8FB7FD
:102DA000F894F601EE0DFF1DE85CF74F12830183E6
:102DB0008FBF86C20E94DD250E94E05920E030E0EE
:102DC0004AE754E40E9492546093930470939404ED
:102DD000809395049093960473C2811171C287E029
:102DE00090E00E9428448C0189E090E00E942844F1
:102DF000BC01990F880B990B0E94E25990582AE95F
:102E000039E949E15EE30E94415A6B017C0160931C
:102E10005104709352048093530490935404B80166
:102E2000110F880B990B0E94E2592DEC3CEC4CE4FD
:102E30005EE30E94415A6093710470937204809320
:102E4000730490937404C701B6010E94FA549B0165
:102E500077FF04C022273327261B370B223031058A
:102E60000CF42EC281E0809344042AC287E090E0F3
:102E70000E94B742082F113009F048C088E090E066
:102E80000E94E8436B017C018CE090E00E942844A2
:102E900097FF03C0919581959109013069F4BC01B8
:102EA000990F880B990B0E94E2598B019C01B70185
:102EB000A60185E59AE047C1023049F4BC01990FAB
:102EC000880B990B0E94E2598B019C0138C1033099
:102ED00069F4BC01990F880B990B0E94E2598B0190
:102EE0009C01B701A60185E599E02DC1043009F0E8
:102EF000E7C1BC01990F880B990B0E94E2598B0125
:102F00009C01B701A60185ED98E01DC1123009F0C2
:102F100064C088E090E00E9428440130A9F4BC011C
:102F2000990F880B990B0E94E2590093550A009360
:102F3000560A6093630A7093640A8093650A9093BB
:102F4000660A1092BF0ABCC10230B1F4BC01990FED
:102F5000880B990B0E94E25921E02093D509209318
:102F6000D6096093E3097093E4098093E50990938F
:102F7000E60910923F0AA4C10330B1F4BC01990FD5
:102F8000880B990B0E94E25921E020935509209368
:102F9000560960936309709364098093650990935F
:102FA00066091092BF098CC1043009F089C1BC01C7
:102FB000990F880B990B0E94E25921E02093D508C4
:102FC0002093D6086093E3087093E4088093E508A3
:102FD0009093E60810923F0973C11330E1F488E042
:102FE00090E00E942844BC01013021F485E59AE07C
:102FF0000C94010E023011F40C94FF0D033021F4F7
:1030000085E599E00C94010E043009F059C185ED75
:1030100098E00C94010E143069F5813049F4109257
:103020007B0A10927C0A10927D0A10927E0A48C197
:10303000823049F41092FB091092FC091092FD09AC
:103040001092FE093DC1833049F410927B09109221
:103050007C0910927D0910927E0932C1843009F0FA
:103060002FC11092FB081092FC081092FD081092DC
:10307000FE0826C1153009F023C188E090E00E94C7
:10308000E8436B017C018CE090E00E942844013011
:10309000D1F4BC01990F880B990B0E94E2594B01A6
:1030A0005C018B019C01B701A60185E59AE00E94B5
:1030B0004A5344275527BA014C195D096E097F0907
:1030C000950184013EC0023091F4BC01990F880B38
:1030D000990B0E94E2594B015C0144275527BA0124
:1030E0004C195D096E097F099501840122C00330E6
:1030F00049F4BC01990F880B990B0E94E2594B01CE
:103100005C0113C0043009F0DBC0BC01990F880BCF
:10311000990B0E94E2594B015C01F094E094D09429
:10312000C094C11CD11CE11CF11C95018401B701A4
:10313000A60185E59AE00E944A5395018401B701F2
:10314000A60185ED99E00E944A53BAC087E090E05D
:103150000E9428447C01612F88ED9CE008D184EF17
:1031600091E09093DF0C8093DE0CC7010E94353410
:10317000A7C087E090E00E94B742F82E1130D1F44A
:1031800080913F0490914004892B69F483E090E0A2
:103190000E9425578C0161E039D2109340040093BE
:1031A0003F04C80116D26F2D70E080913F049091CA
:1031B000400454C01230D1F420913D0430913E04BB
:1031C000232B69F483E090E00E9425578C0162E094
:1031D0001DD210933E0400933D04C801FAD16F2D17
:1031E00070E080913D0490913E0438C01330D1F4DA
:1031F00020913B0430913C04232B69F483E090E060
:103200000E9425578C0163E001D210933C04009387
:103210003B04C801DED16F2D70E080913B0490919A
:103220003C041CC0143009F04BC02091390430918B
:103230003A04232B69F483E090E00E9425578C0127
:1032400064E0E4D110933A0400933904C801C1D179
:103250006F2D70E08091390490913A048FD130C085
:103260008091B60C0C94410F823061F41092900062
:1032700080939100109295001092940088BB8093E7
:1032800071003ECD833069F41092A00082E08093FB
:10329000A1001092A5001092A40089BB8093720037
:1032A0002FCD81112DCD1092200182E0809321013C
:1032B00010922501109224018ABB8093730020CDC7
:1032C000C55BDF4F0FB6F894DEBF0FBECDBFDF91F9
:1032D000CF911F910F91FF90EF90DF90CF90BF9013
:1032E000AF909F908F907F906F905F904F903F90A6
:1032F0002F900895FC0184A1882359F080A591A501
:103300002FEF3FEF31A720A797FF18C0CF010C94F4
:10331000492D83A1882379F081A18F3019F485E5A7
:1033200096E004C0803121F48FE897E00C94843556
:1033300082EF96E0FBCFCF010C9424240895DADFCE
:1033400099270895FC0123A1222379F081A18F30D0
:1033500019F485E596E004C0803121F48FE897E008
:103360000C94EE3582EF96E0FBCF0C94B923DC0190
:10337000E62FF0E0EE0FFF1FE358FD4F80818C93A6
:10338000818111968C93119712966C930895CF9327
:10339000DF93EC0160E089810E94A2388981DF918E
:1033A000CF910C94A539CF93DF93EC0160E0888135
:1033B0000E94A2388881DF91CF910C94A5391F9388
:1033C000CF93DF93EC01162F61E089810E94A23830
:1033D000612F8981DF91CF911F910C9473381F93D6
:1033E000CF93DF93EC01162F61E088810E94A23811
:1033F000612F8881DF91CF911F910C947338CF9307
:10340000DF93EC0188810E94A23888810E944B38AA
:1034100021E0892B09F420E0822FDF91CF910895DC
:10342000DC01E62FF0E0EE0FFF1FE358FD4F808137
:103430008C93818111968C93119712966C930895B9
:103440000F931F93CF93DF93EC01162F4F96E8DF76
:10345000E12FF0E0EE0FFF1FE358FD4F00811181D7
:103460001B821A8288EE93E0A0E0B0E08C839D83FB
:10347000AE83BF8381E692E0998388831F8A1E8A88
:10348000198E188E1B8E1A8E1D8E1C8E6E8D6E7F61
:103490006D7F6E8F6695617081E06827802F0E9436
:1034A000733861E0802F0E94A238802F90E0FC01E9
:1034B000E85BFA4FE491E88BFC01EE5FFA4FE49190
:1034C000F0E0EE0FFF1FE653FA4F859194919A8B2F
:1034D000898B60E0812F0E94A2388E8D81FD04C00F
:1034E00061E0812F0E9473381C87812F90E0FC01DE
:1034F000E85BFA4FE491ED87FC01EE5FFA4FE4914F
:10350000F0E0EE0FFF1FE851FB4F859194919F87EC
:103510008E8781E792E099838883FE01E259FF4F0D
:1035200011821082138212821582148240E050E0D0
:103530006EEB73E0CF010E94DB361DA21CA288A1B6
:10354000FE01EA58FF4F80838F8D3196808329A139
:1035500081EF820F91E0823008F090E081E0253029
:1035600009F080E0892B8BA3DF91CF911F910F9100
:103570000895FC011082118212820895CF93DF9387
:10358000EC01072E000C880B990B0E94E25920E0F9
:1035900030E040E05FE30E94415A0E94FA546333F6
:1035A000710514F062E370E077FF02C060E070E044
:1035B00089819A818617970749F07A836983888180
:1035C00067577F4FDF91CF910C94DE38DF91CF9119
:1035D0000895CF93DF93EC01888161E00E94A238C7
:1035E00088818C3031F481E0809380008BE080937F
:1035F0008100888169E870E00E94DE3862E370E053
:1036000080E090E0DF91CF910C94E939DC01E62F66
:10361000F0E0E85AFD4F90819C3039F481E08093CE
:1036200080008BE0809381001AC0993039F483E0E8
:103630008093B00084E08093B10011C0953039F4DC
:1036400081E0809390008BE08093910008C09830D7
:1036500031F481E08093A0008BE08093A100808111
:103660008C930895CF93DF93EC0188E690E09FA3BD
:103670008EA38BA18823A1F089A140E855E260E0E8
:1036800070E08F3019F485E596E004C0803129F4AC
:103690008FE897E00E94BE339DC082EF96E0FACF9C
:1036A0001B8E1A8E198E188E1F8A1E8A8DE991E044
:1036B0009D8F8C8F8C8596EF980F943048F02EEC70
:1036C000280F243028F022EC280F283008F062C0A0
:1036D0002DEB30E03F8B2E8B2BE931E0398F288F9B
:1036E0002CE231E03B8F2A8F943060F02EEC280FD3
:1036F000243040F022EC280F283008F471C0A0E0FC
:10370000B0E070C0A8E6B0E0E8E6F0E020819430D8
:1037100018F08E53883010F081E001C084E0822BD5
:103720008C938C8596EF980F943058F02EEC280FE0
:10373000243038F022EC280F283030F020E030E040
:1037400005C02BE630E002C02DE630E03C8B2B8B31
:10375000943010F49AEF0BC0823381F0833381F000
:10376000843381F092EC980F983070F492EC980FBB
:1037700081E001C0880F9A95EAF707C088E005C08C
:1037800084E003C082E001C081E08D8B8C8D9D8D33
:103790000197F1F78A8D9B8D892BE1F08091560579
:1037A000909157058C179D07A9F0009711F00E9482
:1037B00009288E8D8E7F8E8F10925405109255059C
:1037C000D0935705C0935605EB89FC8990818D896C
:1037D000892B808360E08F8DDF91CF910C94A2388C
:1037E000A8E6B0E0283008F48FCFE0E0F0E08ECF1C
:1037F0001F93CF93DF93EC018BA1882379F089A1EC
:103800008F3019F485E596E007C0803119F48FE810
:1038100097E002C082EF96E00E94293860E0CE0176
:103820004F96EDDD182F8BA1882311F0CE011ADF02
:1038300081E08127DF91CF911F910895CF93DF938E
:10384000EC01D6DF8823E9F0CE010E949D2D1816E9
:103850001906F4F4E881F9810680F781E02DCE01A4
:1038600019958F3F9105A4F4FE01E658FF4FC55806
:10387000DF4F009719F4888180830AC08083888392
:1038800007C0FE01E658FF4F1082C558DF4F18826F
:10389000DF91CF9108951F920F920FB60F921124CE
:1038A0000BB60F920F931F932F933F934F935F93FA
:1038B0006F937F938F939F93AF93BF93CF93EF9328
:1038C000FF9382E00E944B38C82F8091ED049091C5
:1038D000EE0401969093EE048093ED0480915305DD
:1038E000843618F085E08093E8049091E8049330E2
:1038F00079F018F4923039F072C0943011F19530AB
:1039000009F44AC06CC0C1116AC01092530529C0A5
:10391000C13009F064C0E091530581E08E0F8093BF
:103920005305F0E08091ED049091EE04E951FB4FD6
:1039300080871092EE041092ED0484E08093E804F6
:103940004EC0C11114C0E091530581E08E0F8093E9
:103950005305F0E08091ED049091EE04E951FB4FA6
:1039600080871092EE041092ED0483E0E7CF8091FF
:10397000ED049091EE048536910588F185E0809301
:10398000E8040E94DD256093E9047093EA048093C3
:10399000EB049093EC0423C00E94DD250091E90420
:1039A0001091EA042091EB043091EC04DC01CB018E
:1039B000801B910BA20BB30B893C9105A105B105AE
:1039C00040F0109253051092EE041092ED0482E044
:1039D000B5CFC11104C01092EE041092ED04FF9116
:1039E000EF91CF91BF91AF919F918F917F916F9107
:1039F0005F914F913F912F911F910F910F900BBEAF
:103A00000F900FBE0F901F901895EF92FF920F939B
:103A10001F93CF93DF93FC016F3F710519F014F0F2
:103A20006FEF70E0EB0161307F4F14F4C1E0DFEF26
:103A3000808591858C179D07D1F1D187C087D5836B
:103A4000C483DF01A059BF4FCF018F589F4F7C0126
:103A50008F0101591F4FD7FF12C060E08C910E9467
:103A600073388FE090E00197F1F761E0F701808112
:103A70000E947338662777276C1B7D0B0EC061E0B0
:103A80008C910E9473388FE090E00197F1F760E02D
:103A9000F70180810E947338BE01F8018081DF91B7
:103AA000CF911F910F91FF90EF900C94DE38DF9132
:103AB000CF911F910F91FF90EF9008952F923F9219
:103AC0004F925F926F927F928F929F92AF92BF922E
:103AD000CF92DF92EF92FF920F931F93CF93DF93DA
:103AE000CDB7DEB72A970FB6F894DEBF0FBECDBFB5
:103AF0009A878987DC0196966D917D918D919C9135
:103B0000999712960D911C91139756962D913D9170
:103B10004D915C9159972D833E834F8358870E9426
:103B2000E2596B017C01B801110F880B990B0E94BF
:103B3000E2592D813E814F8158850E94415A9B0157
:103B4000AC01C701B6010E94925420E030E044EB82
:103B500053E40E94415A0E94FA54E985FA85628F23
:103B6000738F848F958F0E94DD2509851A850A58E9
:103B70001F4FD801CD90DD90ED90FC90DC01CB0182
:103B80008C199D09AE09BF094597A105B10508F437
:103B900066C00E94DD256B017C01E985FA8586A05F
:103BA00097A0A0A4B1A482A193A1A4A1B5A12280B1
:103BB000338026893789408D518D29833A834B8301
:103BC0005C83A5019401281B390B4A0B5B0BCA01CE
:103BD000B9010E94E2592B013C01D8018D919C91C1
:103BE000C81AD90AB60180E090E00E94E0599B0112
:103BF000AC0160E070E08AE794E40E9492549B017B
:103C0000AC01C301B2010E94415A20E030E040E71C
:103C100052E40E94415A6B017C01B101330C880BC4
:103C2000990B0E94E25929813A814B815C810E9463
:103C3000415A9B01AC01C701B6010E949254E9852B
:103C4000FA85628773878487958782A293A2A4A24C
:103C5000B5A2B3D7F8016083718382839383A9856A
:103C6000BA859C90B1E09B1276C3A7D709851A85C7
:103C700006581F4FF801C080D180E280F380DC013C
:103C8000CB018C199D09AE09BF098997A105B10522
:103C900008F430C492D7D8016D937D938D939C9393
:103CA0001397E985FA858181811179C2868D978D77
:103CB000A0A1B1A1028D138D248D358DBC01CD0144
:103CC000601B710B820B930B0E94E2596B017C010C
:103CD000A984BA84FAE6AF0EB11CD5018C9109858E
:103CE0001A850C581F4F8111B4C1E985FA85E55931
:103CF000FF4F808120E030E0A901882339F0C7011F
:103D0000B6010E94DC5987FF33C006C0C701B60167
:103D10000E94A355181664F5E985FA852285338536
:103D200044855585EE5AFF4F608171818281938170
:103D30000E94415ADC01CB01B058E985FA85E65A68
:103D4000FF4F80839183A283B383608171818281DD
:103D500093810E94FA549B01D8016D937C93F501E5
:103D60009082A985BA8515967C936E931497EEC2BE
:103D700020E030E0A901C701B6010E94A355260149
:103D80003701181624F077FA709477F87094E98563
:103D9000FA85668577858089918920E030E040EC5E
:103DA00050E40E94415A9B01AC01C301B2010E9440
:103DB000A35587FFBFC320E030E0A901C701B601CA
:103DC0000E94A35518165CF420E030E040E251E474
:103DD000C701B6010E94A35518165CF03AC120E055
:103DE00030E040E251ECC701B6010E94DC5987FF88
:103DF00030C1E985FA85468457846088718820E05F
:103E000030E040E251E4C701B6010E94CB534B01C0
:103E10005C0120E030E040EC50E4C301B2010E94BC
:103E2000415AA50194010E94415A20E030E0A901C5
:103E30000E94A35518169CF4A985BA851E966D910B
:103E40007D918D919C91519720E030E040EC50E4C1
:103E50000E94415AA50194010E94415A11C0E9856E
:103E6000FA85668577858089918920E030E040EC8D
:103E700050E40E94415AA50194010E94415A905871
:103E80000E94FE5520E030E040EC50E40E94925445
:103E90002B013C01A985BA851A968D909D90AD9015
:103EA000BC901D9720E030E0A901C701B6010E9437
:103EB000A355A701960118160CF05058E985FA850C
:103EC000EE5AFF4F80819181A281B38189839A83C9
:103ED000AB83BC83C701B6010E9492549B01AC0125
:103EE000C301B2010E94415A9B01AC01C501B4015A
:103EF0000E94CB539B01AC0169817A818B819C81AB
:103F00000E94415A2B013C0120E030E040EA51EC94
:103F10000E94DC5987FD11C020E030E040EA51E406
:103F2000C301B2010E94A35518166CF4412C512C08
:103F300040EA642E41E4742E06C0412C512C50EA14
:103F4000652E51EC752ED8016D917C91072E000CD9
:103F5000880B990B0E94E259A984BA84BAE5AB0E8A
:103F6000B11CF501608371838283938360817181C9
:103F700082819381A30192010E94CB53D5016D935D
:103F80007D938D939C93139720E030E0A901C701A6
:103F9000B6010E94A35587FD24C0F501608171819F
:103FA0008281938120E030E048EC51E40E94DC59AA
:103FB00087FD12C0D5016D917D918D919C9120E07E
:103FC00030E04FE753E40E94A355181624F580E033
:103FD00090E0AFE7B3E42EC080E090E0A8ECB1E45D
:103FE00029C0D5016D917D918D919C9120E030E0AB
:103FF0004FE753EC0E94DC5987FD13C0F501608147
:1040000071818281938120E030E048EC51EC0E9484
:10401000A35518165CF0F50180819181A281B381CE
:1040200009C080E090E0AFE7B3EC04C080E090E02E
:10403000A8ECB1ECF50180839183A283B383608106
:104040007181828193810E94FA54F80171836083A7
:10405000A2C081E0D5018C93E985FA85E258FF4F33
:104060000190F081E02D309769F0A985BA85A459B7
:10407000BF4F6C9170E0A985BA85AD58BF4F8C9148
:1040800090E01995E985FA85228533854485558523
:10409000EE5AFF4F60817181828193810E94415A63
:1040A0004B015C0120E030E040EA51EC0E94DC5919
:1040B00087FD11C020E030E040EA51E4C501B401C1
:1040C0000E94A35518166CF4812C912C20EAA22E84
:1040D00021E4B22E06C0812C912C30EAA32E31ECC3
:1040E000B32EE985FA85E65BFF4F2081318142815D
:1040F0005381C701B6010E94415AE984FA84FAE566
:10410000EF0EF11CD7016D937D938D939C931397C4
:104110006D917D918D919C91A50194010E94CB534D
:10412000F7016083718382839383608171818281CF
:10413000938120E030E04FE753EC0E94DC5987FD8B
:1041400013C0D7016D917D918D919C9120E030E05D
:104150004FE753E40E94A35518165CF0F7018081E5
:104160009181A281B38109C080E090E0AFE7B3EC18
:1041700004C080E090E0AFE7B3E4F701808391836F
:10418000A283B38360817181828193810E94FA54FA
:10419000D8016D937C93F80120813181D7C0A98526
:1041A000BA8511968C911197813009F0CDC01A967D
:1041B0006D917D918D919C911D971E962D913D91B4
:1041C0004D915C9151979A96CD90DD90ED90FC9039
:1041D0009D970E94CB539B01AC01C701B6010E9481
:1041E000415A6B017C0120E030E048EC51EC0E9428
:1041F000DC5987FD11C020E030E048EC51E4C701F4
:10420000B6010E94A35518166CF4C12CD12C88EC71
:10421000E82E81E4F82E06C0C12CD12C98ECE92EB2
:1042200091ECF92E09851A850C581F4FF801608111
:104230007181072E000C880B990B0E94E259A98509
:10424000BA85DA966D937D938D939C93DD97DA967C
:104250006D917D918D919C91DD97A70196010E94B2
:10426000CB53E985FA8562AF73AF84AF95AF5F0139
:10427000FAE6AF0EB11CD5018C91E985FA85882349
:1042800029F012AE13AE14AE15AE1FC06685778549
:104290008089918920E030E0A9010E94DC598111D8
:1042A00014C020E030E0A901C701B6010E94A35567
:1042B00018160CF0F9C120E030E040E751E4C701E6
:1042C000B6010E94DC5987FDFAC1A985BA85DA9644
:1042D0006D917D918D919C91DD9720E030E04FE7CD
:1042E00053EC0E94DC5987FD15C0E985FA8562AD63
:1042F00073AD84AD95AD20E030E04FE753E40E940C
:10430000A355181664F0E985FA8582AD93ADA4AD86
:10431000B5AD09C080E090E0AFE7B3EC04C080E049
:1043200090E0AFE7B3E4E985FA8582AF93AFA4AF3D
:10433000B5AF62AD73AD84AD95AD0E94FA549B01EB
:10434000D8016D937C9302C020E030E0E985FA85C6
:1043500035832483CFC0E985FA858081823009F0D6
:10436000C1C12BD409851A8506581F4FD801CD909D
:10437000DD90ED90FC90DC01CB018C199D09AE091C
:10438000BF098997A105B10508F4B4C016D4F80196
:104390006083718382839383A985BA8514966D9116
:1043A0007C91159716960D911C911797072E000C6E
:1043B000880B990B0E94E2592DEC3CEC4CE45FE336
:1043C0000E94415A6B017C01B801110F880B990BB7
:1043D0000E94E2592DEC3CEC4CE45EE30E94415A11
:1043E0009B01AC01C701B6010E94CC5320E030E034
:1043F000A9010E94A35587FD2DC0E985FA85648136
:10440000758106811781072E000C880B990B0E947D
:10441000E2592DEC3CEC4CE45FE30E94415A6B0105
:104420007C01B801110F880B990B0E94E2592DEC09
:104430003CEC4CE45EE30E94415A9B01AC01C70195
:10444000B6010E94CC5320E030E040E05FE30E94E0
:10445000CC5330C0A985BA8514966D917C9115977F
:1044600016960D911C911797072E000C880B990B2F
:104470000E94E2592DEC3CEC4CE45FE30E94415A6F
:104480006B017C01B801110F880B990B0E94E25956
:104490002DEC3CEC4CE45EE30E94415A9B01AC01E4
:1044A000C701B6010E94CC5320E030E040E05FE35A
:1044B0000E94CB530E94FA54E985FA857583648380
:1044C00084819581181619061CF48481958109C090
:1044D000A985BA8514968D919C9115979195819592
:1044E00091090B973CF4E985FA8586819781892BA0
:1044F00009F4F1C0A985BA8514966D917C91159740
:10450000CD012A960FB6F894DEBF0FBECDBFDF9166
:10451000CF911F910F91FF90EF90DF90CF90BF90C0
:10452000AF909F908F907F906F905F904F903F9053
:104530002F906BCAA985BA851A962D913D914D9100
:104540005C911D9729833A834B835C831E968D90E3
:104550009D90AD90BC90519720E030E0A901C7013B
:10456000B6010E94A355181624F0A70196015058D1
:1045700002C0A7019601A985BA859A964D905D90D3
:104580006D907C909D97C701B6010E9492549B014B
:10459000AC01C501B4010E94415A9B01AC01698183
:1045A0007A818B819C810E94CB539B01AC01C3011A
:1045B000B2010E94415A6B017C0120E030E048ECDE
:1045C00051EC0E94DC5987FD11C020E030E048EC3E
:1045D00051E4C701B6010E94A35518166CF4C12C12
:1045E000D12C68ECE62E61E4F62E06C0C12CD12C4D
:1045F00078ECE72E71ECF72EF80160817181072EBF
:10460000000C880B990B0E94E259A985BA85DA96AD
:104610006D937D938D939C93DD97DA966D917D914B
:104620008D919C91DD97A70196010E94CB53E9855E
:10463000FA8562AF73AF84AF95AF62AD73AD84ADF1
:1046400095AD20E030E04FE753EC0E94DC5987FD48
:1046500017C0A985BA85DA966D917D918D919C914F
:10466000DD9720E030E04FE753E40E94A355181691
:1046700064F0E985FA8582AD93ADA4ADB5AD09C00E
:1046800080E090E0AFE7B3EC04C080E090E0AFE7FB
:10469000B3E4E985FA8582AF93AFA4AFB5AF62AD5D
:1046A00073AD84AD95AD72CD20E030E040E751ECC4
:1046B000C701B6010E94A35518160CF006CEA985B5
:1046C000BA85DA961D921D921D921C92DD9781E0AB
:1046D000F5018083FACDA985BA8515961C921E92A4
:1046E000149708CF2A960FB6F894DEBF0FBECDBF41
:1046F000DF91CF911F910F91FF90EF90DF90CF90BE
:10470000BF90AF909F908F907F906F905F904F90F1
:104710003F902F90089522E0FC0120839B016F3F82
:10472000710519F014F02FEF30E02130FFEF3F0753
:1047300014F421E03FEFFC013783268308950895A8
:1047400020915605309157052817390771F490913B
:10475000550580915405981741F0E0915505F0E01A
:10476000ED55FA4F808190E008958FEF9FEF089507
:1047700008951F93CF93DF93DC015C962D913C91BC
:104780005D972115310539F481E090E013969C93F3
:104790008E9312973DC05196ED91FC915297509691
:1047A0009C915097892F80951FB75E964C915E978C
:1047B00041FB772770F941FD6095F894408177239C
:1047C00011F0492B01C048234083E9012197F1F7FB
:1047D00048E0508160FF02C0592B01C0582350832C
:1047E000E9012197F1F76695415099F7772321F078
:1047F00090818923808303C08081982B90831FBF81
:104800005C968D919C915D970197F1F721E030E0E6
:10481000C901DF91CF911F910895209156053091E4
:1048200057052817390769F48091540520915505DB
:1048300090E0805C9F4F821B910960E470E00C94D3
:10484000B05380E090E008952091560530915705CF
:1048500028173907B9F49091550580915405981798
:1048600089F0E0915505F0E0ED55FA4F80812091F7
:10487000550530E02F5F3F4F2F73332720935505A9
:1048800090E008958FEF9FEF089585ED8093BC0031
:104890008091BC0084FDFCCF1092300608954091B9
:1048A0007E05262F30E0240F311D21323105DCF446
:1048B000209130062430C9F4FC0180E090E0861796
:1048C00058F430917E052191DC01A45ABA4FA30F10
:1048D000B11D2C930196F3CF80917E05680F6093F4
:1048E0007E0580E0089581E0089582E008950895AE
:1048F000E091E9058091E805E81730F4F0E0E65131
:10490000FA4F808190E008958FEF9FEF0895909186
:10491000E9058091E805981750F4E92FF0E0E65199
:10492000FA4F208130E09F5F9093E90502C02FEF9E
:104930003FEFC90108958091E80590E02091E905D5
:10494000821B91090895CF92DF92EF92FF920F930D
:104950001F93CF93DF937C01262F972F8A0180919D
:104960003106882391F0C62FD72F6E01C40ED51EB5
:10497000CC15DD0569F06991D701ED91FC910190AD
:10498000F081E02DC7011995F3CF642F822F87DFC7
:10499000C801DF91CF911F910F91FF90EF90DF90B1
:1049A000CF900895CF93DF931F92CDB7DEB7698381
:1049B000209131062223D1F020915406203240F07C
:1049C00021E030E0FC013383228380E090E014C0DA
:1049D00080913206E82FF0E0ED5CF94F99819083E9
:1049E0008F5F809332068093540604C061E0CE014D
:1049F000019655DF81E090E00F90DF91CF9108950F
:104A0000CF92DF92EF92FF920F931F93CF93DF939A
:104A10006C018B017A01EC01C85ADA4F888187FF5B
:104A200004C0FB011182108224C08CE08C9D900197
:104A30008D9D300D11248881A901480F511D87FDDE
:104A40005A958091C80890E04817590794F48881D6
:104A5000A901480F511D87FD5A95CA01FA01EE0FB1
:104A6000FF1F8E0F9F1FFC01E85CF74F808187FDC1
:104A700019C088818F5F88838CE08C9D90018D9D0B
:104A8000300D11248881A901480F511D87FD5A95C9
:104A90008091C80890E048175907BCF488818C3091
:104AA00044F113C08881280F311D87FD3A95F90123
:104AB000EE0FFF1F2E0F3F1FF901E85CF74F8081BB
:104AC00060E08F770E947338D4CFF80180819181A4
:104AD000049680349C4918F480E49CE904C0F801F1
:104AE000808191810496F701918380838FEF888381
:104AF00045C0F801408151818881B901680F711D5D
:104B000087FD7A95CB01FB01EE0FFF1F8E0F9F1FD4
:104B1000FC01E85CF74F81819281840F951FF701BA
:104B2000918380838881A901480F511D87FD5A9583
:104B3000CA01FA01EE0FFF1F8E0F9F1FFC01E85CF8
:104B4000F74F808187FF1AC08881280F311D87FDAC
:104B50003A95F901EE0FFF1F2E0F3F1FF901E85C98
:104B6000F74F808161E08F77DF91CF911F910F9197
:104B7000FF90EF90DF90CF900C947338DF91CF913E
:104B80001F910F91FF90EF90DF90CF900895CF93FA
:104B9000DF93EC018B85813011F460E001C061E0AE
:104BA0008A810E94733861E08B810E94733860E0D3
:104BB0008B81DF91CF910C9473382FB7F89460916B
:104BC000E4057091E5058091E6059091E7052FBF1A
:104BD00008951F920F920FB60F9211242F933F93B7
:104BE0008F939F93AF93BF938091E4059091E505D8
:104BF000A091E605B091E7053091E30523E0230F8E
:104C00002D3720F40196A11DB11D05C026E8230F04
:104C10000296A11DB11D2093E3058093E4059093B6
:104C2000E505A093E605B093E7058091290E9091E4
:104C30002A0EA0912B0EB0912C0E0196A11DB11D34
:104C40008093290E90932A0EA0932B0EB0932C0ED6
:104C5000BF91AF919F918F913F912F910F900FBE78
:104C60000F901F9018951F920F920FB60F9211245C
:104C70000BB60F922F933F934F935F936F937F9356
:104C80008F939F93AF93BF93EF93FF93E0911402A1
:104C9000F09115021995FF91EF91BF91AF919F91FE
:104CA0008F917F916F915F914F913F912F910F90D5
:104CB0000BBE0F900FBE0F901F9018951F920F9272
:104CC0000FB60F9211240BB60F922F933F934F9371
:104CD0005F936F937F938F939F93AF93BF93EF9364
:104CE000FF93E0911202F09113021995FF91EF9159
:104CF000BF91AF919F918F917F916F915F914F91F4
:104D00003F912F910F900BBE0F900FBE0F901F90F1
:104D100018951F920F920FB60F9211240BB60F9297
:104D20002F933F934F935F936F937F938F939F93B3
:104D3000AF93BF93EF93FF93E0910802F0910902C4
:104D40001995FF91EF91BF91AF919F918F917F91B5
:104D50006F915F914F913F912F910F900BBE0F90EC
:104D60000FBE0F901F9018951F920F920FB60F92C3
:104D700011240BB60F922F933F934F935F936F9332
:104D80007F938F939F93AF93BF93EF93FF93E091A4
:104D90000602F09107021995FF91EF91BF91AF9133
:104DA0009F918F917F916F915F914F913F912F9143
:104DB0000F900BBE0F900FBE0F901F9018951F9273
:104DC0000F920FB60F9211240BB60F922F933F93B1
:104DD0004F935F936F937F938F939F93AF93BF9303
:104DE000EF93FF93E0911002F09111021995FF915A
:104DF000EF91BF91AF919F918F917F916F915F9153
:104E00004F913F912F910F900BBE0F900FBE0F90BF
:104E10001F9018951F920F920FB60F9211240BB688
:104E20000F922F933F934F935F936F937F938F9343
:104E30009F93AF93BF93EF93FF93E0910E02F09196
:104E40000F021995FF91EF91BF91AF919F918F91B3
:104E50007F916F915F914F913F912F910F900BBE7A
:104E60000F900FBE0F901F9018951F920F920FB6C4
:104E70000F9211240BB60F922F933F934F935F9392
:104E80006F937F938F939F93AF93BF93EF93FF9312
:104E9000E0910C02F0910D021995FF91EF91BF91F5
:104EA000AF919F918F917F916F915F914F913F91C2
:104EB0002F910F900BBE0F900FBE0F901F90189563
:104EC0001F920F920FB60F9211240BB60F922F93D1
:104ED0003F934F935F936F937F938F939F93AF9382
:104EE000BF93EF93FF93E0910A02F0910B021995A3
:104EF000FF91EF91BF91AF919F918F917F916F91B2
:104F00005F914F913F912F910F900BBE0F900FBE6D
:104F10000F901F9018951F920F920FB60F921124A9
:104F20000BB60F922F933F934F935F936F937F93A3
:104F30008F939F93AF93BF93EF93FF93E0915605A9
:104F4000F0915705309709F451C0968DA685B78525
:104F5000858591FF04C09C91892329F447C09C91C9
:104F6000892309F043C0A389B4899C9185898095E0
:104F700089238C93868997890197F1F7608D718DCC
:104F8000A685B785558538E020E0CB010197F1F77C
:104F9000822F90E095958795282F4C91452309F015
:104FA0002068315091F7868D81FD209580915405C0
:104FB00090E001968F73992730915505381749F085
:104FC000A0915405B0E0AD55BA4F2C938093540591
:104FD00003C0868D8160868F828D938D0197F1F756
:104FE000A389B4899C918589892B8C93FF91EF913A
:104FF000BF91AF919F918F917F916F915F914F91F1
:105000003F912F910F900BBE0F900FBE0F901F90EE
:105010001895E0915605F0915705E817F90769F4DE
:10502000A389B4899C918589809589238C9310925A
:1050300057051092560581E0089580E008951F926B
:105040000F920FB60F9211240BB60F922F933F932E
:105050004F935F936F937F938F939F93AF93BF9380
:10506000EF93FF938091B900887F803609F49CC04C
:1050700068F5883209F45BC090F4803109F454C0BB
:1050800038F4882309F4F6C0883009F44DC0F5C01F
:10509000883109F44CC0803209F45DC0EEC0803420
:1050A00009F468C048F4803309F455C0883309F026
:1050B000E4C080932E06D8C0803509F44FC08835EF
:1050C00009F45DC0883409F0D8C0D6C0883909F425
:1050D000C7C0A8F4883709F467C038F4883609F4E3
:1050E00063C0803709F460C0C8C0883809F4B8C00C
:1050F000803909F45FC0803809F0BFC05BC0803BD5
:1051000009F486C038F4803A09F466C0883A09F494
:105110007FC0B3C0803C09F4A7C0883C09F4A4C098
:10512000883B09F48AC0A9C080910B0610C09091F9
:105130002D0680912C06981770F5E0912D0681E0E0
:105140008E0F80932D06F0E0E45FF94F808180930D
:10515000BB0085EC86C080932E068EC0E0912D06A4
:1051600081E08E0F80932D068091BB00F0E0E45F1C
:10517000F94F808390912D0680912C066EC0E091AE
:105180002D0681E08E0F80932D068091BB00F0E00C
:10519000E45FF94F808380912F0681116DC081E01B
:1051A00080930A0684EA61C083E0809330061092FF
:1051B000A205CFCF8091A205803208F051C0E091C6
:1051C000A20581E08E0F8093A2058091BB00F0E0E4
:1051D000EE57FA4F8083BDCF85EC8093BC001092D0
:1051E00030068091A205803230F4E091A205F0E013
:1051F000EE57FA4F10826091A20570E0E0918005B1
:10520000F091810582E895E019951092A20535C0CC
:1052100084E08093300610927F0510927E05E09125
:105220007C05F0917D05199580917E05811105C061
:1052300081E080937E0510925C05E0917F0581E01E
:105240008E0F80937F05F0E0E45AFA4F80818093BF
:10525000BB0090917F0580917E05981708F479CF67
:1052600085E88093BC0009C085EC8093BC00109257
:10527000300603C010922E0608DBFF91EF91BF911C
:10528000AF919F918F917F916F915F914F913F91DE
:105290002F910F900BBE0F900FBE0F901F9018957F
:1052A0001F920F920FB60F9211240BB60F922F93ED
:1052B0003F934F935F936F937F938F939F93AF939E
:1052C000BF93EF93FF9348E251E064E271E080E026
:1052D00090E096DBFF91EF91BF91AF919F918F91FD
:1052E0007F916F915F914F913F912F910F900BBEE6
:1052F0000F900FBE0F901F9018951F920F920FB630
:105300000F9211240BB60F922F933F934F935F93FD
:105310006F937F938F939F93AF93BF93EF93FF937D
:1053200048EA50E064EA70E083E090E069DBFF91D6
:10533000EF91BF91AF919F918F917F916F915F910D
:105340004F913F912F910F900BBE0F900FBE0F907A
:105350001F9018951F920F920FB60F9211240BB643
:105360000F922F933F934F935F936F937F938F93FE
:105370009F93AF93BF93EF93FF9348E950E064E9A5
:1053800070E082E090E03CDBFF91EF91BF91AF9144
:105390009F918F917F916F915F914F913F912F914D
:1053A0000F900BBE0F900FBE0F901F9018951F927D
:1053B0000F920FB60F9211240BB60F922F933F93BB
:1053C0004F935F936F937F938F939F93AF93BF930D
:1053D000EF93FF9348E850E064E870E081E090E0EC
:1053E0000FDBFF91EF91BF91AF919F918F917F91D3
:1053F0006F915F914F913F912F910F900BBE0F9046
:105400000FBE0F901F90189560E0FC0184810C94F2
:10541000733861E0FC0184810C9473380F931F93FF
:10542000CF93DF93EC01488959896A897B898C8500
:105430009D85AE85BF85481759076A077B0711F41C
:1054400080E046C084179507A607B7071CF481E0E3
:105450008B8701C01B8688A199A1AAA1BBA1892B1A
:105460008A2B8B2B69F30E94C4390CA11DA12EA19C
:105470003FA1DC01CB01801B910BA20BB30B08A158
:1054800019A12AA13BA1081719072A073B07C0F653
:105490002B858C859D85AE85BF85213021F40196B5
:1054A000A11DB11D03C00197A109B1098C879D877A
:1054B000AE87BF87E881F9810190F081E02DCE01B0
:1054C00019950E94C4396CA37DA38EA39FA381E08C
:1054D000DF91CF911F910F9108954F925F926F923C
:1054E0007F92AF92BF92CF92DF92EF92FF920F9393
:1054F0001F93CF93DF93EC015A018B01FC01FF96C0
:105500001182108281E08EAF2C893D894E895F899E
:10551000B501C8010E94DC59882309F44CC0C88C2D
:10552000D98CEA8CFB8C2601370177FA709477F8D6
:105530007094A3019201B501C8010E94DC5987FD56
:105540000BC0A7019601B501C8010E94A35518160A
:105550002CF06501780102C07301620120E030E0A7
:10556000A901C701B6010E94DC59811105C018A22A
:1055700019A21AA21BA21BC0A701960160E074E247
:1055800084E799E40E9492549F770E94FF5468A395
:1055900079A38AA39BA311E020E030E0A901C70111
:1055A000B6010E94A35518160CF010E01B87CC8A98
:1055B000DD8AEE8AFF8ADF91CF911F910F91FF90D4
:1055C000EF90DF90CF90BF90AF907F906F905F9003
:1055D0004F9008952F923F924F925F926F927F92D9
:1055E0008F929F92AF92BF92CF92DF92EF92FF92F3
:1055F0000F931F93CF93DF9300D01F92CDB7DEB7E9
:105600001C01FC01C088D188E288F38884859585D7
:10561000A685B785C81AD90AEA0AFB0A648975897A
:10562000868997899B01AC010E94415A4B015C011C
:10563000F101648D758D868D978D9B01AC010E9463
:10564000CC539B01AC01C501B4010E9492540E944D
:10565000FA54C114D104E104F104A1F462307105DB
:10566000810591050CF07CC0F10110A211A212A2DB
:1056700013A2148A158A168A178A10A611A612A6D2
:1056800013A6FDC0F10100A511A522A533A51C1488
:105690001D041E041F0404F510161106120613063D
:1056A0004CF46C157D058E059F055CF52385211155
:1056B00057C027C0011511052105310509F450C057
:1056C0006C157D058E059F050CF04AC0F1018385A0
:1056D000813009F045C039C01016110612061306B4
:1056E000FCF40027112798010C191D092E093F0908
:1056F000601771078207930724F4F1012385213095
:1057000079F59B01AC0188279927DC01821B930B5B
:10571000A40BB50BF10180A791A7A2A7B3A720C046
:105720000115110521053105D9F08824992454016A
:105730008C189D08AE08BF08681579058A059B0579
:105740007CF4F101838581110BC030952095109573
:1057500001951F4F2F4F3F4F00A711A722A733A737
:10576000F10180A491A4A2A4B3A481149104A10482
:10577000B10491F484A595A5A6A5B7A580AB91AB7E
:10578000A2ABB3AB81E01C141D041E041F040CF07B
:1057900080E0F10183873FC0F101C0A8D1A8E2A851
:1057A000F3A8A7019601C701B6010E94CC532B01B3
:1057B0003C01C501B4010E94E25920E030E040E81C
:1057C00050E40E94415A20E030E040E85FE30E944C
:1057D000CC539B01AC01C301B2010E9492549B01C6
:1057E000AC01C701B6010E94CB537B018C01F101D2
:1057F00064A875A8C6A8D7A89301A6010E94A355BE
:10580000181614F073018601A701B801F10140AB2D
:1058100051AB62AB73ABFFEF8F1A9F0AAF0ABF0A9F
:10582000F10180A691A6A2A6B3A620A931A942A9FA
:1058300053A9CA01B90129833A834B835C830E942F
:10584000FF54F10160A371A382A393A329813A813C
:105850004B815C8160E074E284E799E40E94925499
:10586000F101648B758B868B978B2385211107C083
:10587000DC01CB01B058848B958BA68BB78B0F9036
:105880000F900F900F90DF91CF911F910F91FF908C
:10589000EF90DF90CF90BF90AF909F908F907F90D0
:1058A0006F905F904F903F902F900895CF92DF922E
:1058B000EF92FF92CF93DF93EC016A017B019A0193
:1058C000AB01688D798D8A8D9B8D0E94DC59882370
:1058D00009F43FC0C88ED98EEA8EFB8EA7019601CF
:1058E00060E074E284E799E40E9492546CAB7DAB73
:1058F0008EAB9FAB88A599A5AAA5BBA518161906BE
:105900001A061B0634F56C897D898E899F899B0157
:10591000AC010E94415A6B017C016C8D7D8D8E8D96
:105920009F8D9B01AC010E94CC539B01AC01C70130
:10593000B6010E9492540E94FA5468A779A78AA7D8
:105940009BA7CE01DF91CF91FF90EF90DF90CF909A
:1059500041CEDF91CF91FF90EF90DF90CF900895EF
:105960000F931F93FC010089118922893389041741
:1059700015072607370739F0408B518B628B738BE5
:105980001F910F9127CE1F910F9108950F931F9391
:10599000CF93DF93EC018B0185E293E099838883B9
:1059A0001C861D861E861F86188A198A1A8A1B8ADB
:1059B0001C8E1D8E1E8E1F8E0E94C4396CA37DA36B
:1059C0008EA39FA31C8A1D8A1E8A1F8A81E08B8753
:1059D0001C861D861E861F86188A198A1A8A1B8AAB
:1059E00018A619A61AA61BA618A219A21AA21BA2CB
:1059F0001BAF0AAFF80183E0EE0FFF1F8A95E1F7B6
:105A0000E956FD4F80818C8381818D8382818E83D5
:105A100083818F83848188878581898786818B8331
:105A200087818A8361E00E94A23861E08B810E94B5
:105A3000A23861E08C810E94A23861E089850E94D1
:105A4000A23861E088850E94A23861E089850E94C1
:105A5000733861E088850E94733861E08D810E940F
:105A6000A23861E08E810E94A23861E08F810E949D
:105A7000A23860E08D810E94733860E08E810E94C0
:105A8000733861E08F81DF91CF911F910F910C945A
:105A90007338AF92BF92CF92DF92EF92FF920F9343
:105AA0001F93CF93DF93FC01E6A0F7A0F3E0EF1A7A
:105AB000F1086C0126E7C20ED11CF60180810E941C
:105AC0004B38892B69F5E701CC0FDD1FCC0FDD1FAB
:105AD0002597A12CB12C00E010E0F2E0EF16F104C4
